{
  "_format": "hh-sol-artifact-1",
  "contractName": "InteroperableToken",
  "sourceName": "contracts/InteroperableToken.sol",
  "abi": [
    {
      "inputs": [
        {
          "internalType": "string",
          "name": "name",
          "type": "string"
        },
        {
          "internalType": "string",
          "name": "currency",
          "type": "string"
        },
        {
          "internalType": "string",
          "name": "thisInstitutionName",
          "type": "string"
        },
        {
          "internalType": "uint256",
          "name": "initialSupply",
          "type": "uint256"
        },
        {
          "internalType": "address",
          "name": "accessControlAdmin",
          "type": "address"
        },
        {
          "internalType": "address",
          "name": "tornadoAdmin",
          "type": "address"
        },
        {
          "internalType": "address",
          "name": "institutionAdmin",
          "type": "address"
        },
        {
          "internalType": "address",
          "name": "userAdmin",
          "type": "address"
        },
        {
          "internalType": "address",
          "name": "supplyControlAdmin",
          "type": "address"
        }
      ],
      "stateMutability": "nonpayable",
      "type": "constructor"
    },
    {
      "anonymous": false,
      "inputs": [
        {
          "indexed": true,
          "internalType": "address",
          "name": "owner",
          "type": "address"
        },
        {
          "indexed": true,
          "internalType": "address",
          "name": "spender",
          "type": "address"
        },
        {
          "indexed": false,
          "internalType": "uint256",
          "name": "value",
          "type": "uint256"
        }
      ],
      "name": "Approval",
      "type": "event"
    },
    {
      "anonymous": false,
      "inputs": [
        {
          "indexed": false,
          "internalType": "uint256[]",
          "name": "amounts",
          "type": "uint256[]"
        },
        {
          "indexed": false,
          "internalType": "bytes32[]",
          "name": "commitments",
          "type": "bytes32[]"
        },
        {
          "indexed": false,
          "internalType": "string",
          "name": "institution",
          "type": "string"
        },
        {
          "indexed": false,
          "internalType": "address",
          "name": "institutionAddress",
          "type": "address"
        }
      ],
      "name": "BurnToZKPEscrow",
      "type": "event"
    },
    {
      "anonymous": false,
      "inputs": [
        {
          "indexed": false,
          "internalType": "address",
          "name": "to",
          "type": "address"
        },
        {
          "indexed": false,
          "internalType": "uint256[]",
          "name": "amounts",
          "type": "uint256[]"
        },
        {
          "indexed": false,
          "internalType": "bytes32[]",
          "name": "commitments",
          "type": "bytes32[]"
        }
      ],
      "name": "MintToZKPEscrow",
      "type": "event"
    },
    {
      "anonymous": false,
      "inputs": [
        {
          "indexed": true,
          "internalType": "bytes32",
          "name": "role",
          "type": "bytes32"
        },
        {
          "indexed": true,
          "internalType": "bytes32",
          "name": "previousAdminRole",
          "type": "bytes32"
        },
        {
          "indexed": true,
          "internalType": "bytes32",
          "name": "newAdminRole",
          "type": "bytes32"
        }
      ],
      "name": "RoleAdminChanged",
      "type": "event"
    },
    {
      "anonymous": false,
      "inputs": [
        {
          "indexed": true,
          "internalType": "bytes32",
          "name": "role",
          "type": "bytes32"
        },
        {
          "indexed": true,
          "internalType": "address",
          "name": "account",
          "type": "address"
        },
        {
          "indexed": true,
          "internalType": "address",
          "name": "sender",
          "type": "address"
        }
      ],
      "name": "RoleGranted",
      "type": "event"
    },
    {
      "anonymous": false,
      "inputs": [
        {
          "indexed": true,
          "internalType": "bytes32",
          "name": "role",
          "type": "bytes32"
        },
        {
          "indexed": true,
          "internalType": "address",
          "name": "account",
          "type": "address"
        },
        {
          "indexed": true,
          "internalType": "address",
          "name": "sender",
          "type": "address"
        }
      ],
      "name": "RoleRevoked",
      "type": "event"
    },
    {
      "anonymous": false,
      "inputs": [
        {
          "indexed": true,
          "internalType": "address",
          "name": "from",
          "type": "address"
        },
        {
          "indexed": true,
          "internalType": "address",
          "name": "to",
          "type": "address"
        },
        {
          "indexed": false,
          "internalType": "uint256",
          "name": "value",
          "type": "uint256"
        }
      ],
      "name": "Transfer",
      "type": "event"
    },
    {
      "inputs": [],
      "name": "AUTHORISED_ROLE",
      "outputs": [
        {
          "internalType": "bytes32",
          "name": "",
          "type": "bytes32"
        }
      ],
      "stateMutability": "view",
      "type": "function"
    },
    {
      "inputs": [],
      "name": "DEFAULT_ADMIN_ROLE",
      "outputs": [
        {
          "internalType": "bytes32",
          "name": "",
          "type": "bytes32"
        }
      ],
      "stateMutability": "view",
      "type": "function"
    },
    {
      "inputs": [],
      "name": "INSTITUTION_ROLE",
      "outputs": [
        {
          "internalType": "bytes32",
          "name": "",
          "type": "bytes32"
        }
      ],
      "stateMutability": "view",
      "type": "function"
    },
    {
      "inputs": [],
      "name": "SUPPLY_CONTROL_ROLE",
      "outputs": [
        {
          "internalType": "bytes32",
          "name": "",
          "type": "bytes32"
        }
      ],
      "stateMutability": "view",
      "type": "function"
    },
    {
      "inputs": [],
      "name": "TORNADO_ROLE",
      "outputs": [
        {
          "internalType": "bytes32",
          "name": "",
          "type": "bytes32"
        }
      ],
      "stateMutability": "view",
      "type": "function"
    },
    {
      "inputs": [],
      "name": "USER_ROLE",
      "outputs": [
        {
          "internalType": "bytes32",
          "name": "",
          "type": "bytes32"
        }
      ],
      "stateMutability": "view",
      "type": "function"
    },
    {
      "inputs": [
        {
          "internalType": "address",
          "name": "user",
          "type": "address"
        },
        {
          "internalType": "bool",
          "name": "approved",
          "type": "bool"
        }
      ],
      "name": "addOrDeleteAuthorisedUser",
      "outputs": [],
      "stateMutability": "nonpayable",
      "type": "function"
    },
    {
      "inputs": [
        {
          "internalType": "string",
          "name": "institution",
          "type": "string"
        },
        {
          "internalType": "address",
          "name": "institutionAddress",
          "type": "address"
        },
        {
          "internalType": "bool",
          "name": "approved",
          "type": "bool"
        }
      ],
      "name": "addOrDeleteInstitution",
      "outputs": [],
      "stateMutability": "nonpayable",
      "type": "function"
    },
    {
      "inputs": [
        {
          "internalType": "address",
          "name": "tornado",
          "type": "address"
        }
      ],
      "name": "addTornadoContract",
      "outputs": [],
      "stateMutability": "nonpayable",
      "type": "function"
    },
    {
      "inputs": [
        {
          "internalType": "address",
          "name": "owner",
          "type": "address"
        },
        {
          "internalType": "address",
          "name": "spender",
          "type": "address"
        }
      ],
      "name": "allowance",
      "outputs": [
        {
          "internalType": "uint256",
          "name": "",
          "type": "uint256"
        }
      ],
      "stateMutability": "view",
      "type": "function"
    },
    {
      "inputs": [
        {
          "internalType": "address",
          "name": "spender",
          "type": "address"
        },
        {
          "internalType": "uint256",
          "name": "amount",
          "type": "uint256"
        }
      ],
      "name": "approve",
      "outputs": [
        {
          "internalType": "bool",
          "name": "",
          "type": "bool"
        }
      ],
      "stateMutability": "nonpayable",
      "type": "function"
    },
    {
      "inputs": [
        {
          "internalType": "address",
          "name": "account",
          "type": "address"
        }
      ],
      "name": "balanceOf",
      "outputs": [
        {
          "internalType": "uint256",
          "name": "",
          "type": "uint256"
        }
      ],
      "stateMutability": "view",
      "type": "function"
    },
    {
      "inputs": [
        {
          "internalType": "uint256",
          "name": "amount",
          "type": "uint256"
        }
      ],
      "name": "burn",
      "outputs": [],
      "stateMutability": "nonpayable",
      "type": "function"
    },
    {
      "inputs": [
        {
          "internalType": "uint256",
          "name": "totalAmount",
          "type": "uint256"
        },
        {
          "internalType": "uint256[]",
          "name": "amounts",
          "type": "uint256[]"
        },
        {
          "internalType": "bytes32[]",
          "name": "commitments",
          "type": "bytes32[]"
        },
        {
          "internalType": "string",
          "name": "institution",
          "type": "string"
        }
      ],
      "name": "burnAndTransferToConnectedInstitution",
      "outputs": [],
      "stateMutability": "nonpayable",
      "type": "function"
    },
    {
      "inputs": [],
      "name": "decimals",
      "outputs": [
        {
          "internalType": "uint8",
          "name": "",
          "type": "uint8"
        }
      ],
      "stateMutability": "view",
      "type": "function"
    },
    {
      "inputs": [
        {
          "internalType": "address",
          "name": "spender",
          "type": "address"
        },
        {
          "internalType": "uint256",
          "name": "subtractedValue",
          "type": "uint256"
        }
      ],
      "name": "decreaseAllowance",
      "outputs": [
        {
          "internalType": "bool",
          "name": "",
          "type": "bool"
        }
      ],
      "stateMutability": "nonpayable",
      "type": "function"
    },
    {
      "inputs": [
        {
          "internalType": "bytes32",
          "name": "role",
          "type": "bytes32"
        }
      ],
      "name": "getRoleAdmin",
      "outputs": [
        {
          "internalType": "bytes32",
          "name": "",
          "type": "bytes32"
        }
      ],
      "stateMutability": "view",
      "type": "function"
    },
    {
      "inputs": [
        {
          "internalType": "bytes32",
          "name": "role",
          "type": "bytes32"
        },
        {
          "internalType": "uint256",
          "name": "index",
          "type": "uint256"
        }
      ],
      "name": "getRoleMember",
      "outputs": [
        {
          "internalType": "address",
          "name": "",
          "type": "address"
        }
      ],
      "stateMutability": "view",
      "type": "function"
    },
    {
      "inputs": [
        {
          "internalType": "bytes32",
          "name": "role",
          "type": "bytes32"
        }
      ],
      "name": "getRoleMemberCount",
      "outputs": [
        {
          "internalType": "uint256",
          "name": "",
          "type": "uint256"
        }
      ],
      "stateMutability": "view",
      "type": "function"
    },
    {
      "inputs": [
        {
          "internalType": "bytes32",
          "name": "role",
          "type": "bytes32"
        },
        {
          "internalType": "address",
          "name": "account",
          "type": "address"
        }
      ],
      "name": "grantRole",
      "outputs": [],
      "stateMutability": "nonpayable",
      "type": "function"
    },
    {
      "inputs": [
        {
          "internalType": "bytes32",
          "name": "role",
          "type": "bytes32"
        },
        {
          "internalType": "address",
          "name": "account",
          "type": "address"
        }
      ],
      "name": "hasRole",
      "outputs": [
        {
          "internalType": "bool",
          "name": "",
          "type": "bool"
        }
      ],
      "stateMutability": "view",
      "type": "function"
    },
    {
      "inputs": [
        {
          "internalType": "address",
          "name": "spender",
          "type": "address"
        },
        {
          "internalType": "uint256",
          "name": "addedValue",
          "type": "uint256"
        }
      ],
      "name": "increaseAllowance",
      "outputs": [
        {
          "internalType": "bool",
          "name": "",
          "type": "bool"
        }
      ],
      "stateMutability": "nonpayable",
      "type": "function"
    },
    {
      "inputs": [
        {
          "internalType": "address",
          "name": "account",
          "type": "address"
        },
        {
          "internalType": "uint256",
          "name": "amount",
          "type": "uint256"
        }
      ],
      "name": "mint",
      "outputs": [],
      "stateMutability": "nonpayable",
      "type": "function"
    },
    {
      "inputs": [
        {
          "internalType": "uint256",
          "name": "totalAmount",
          "type": "uint256"
        },
        {
          "internalType": "uint256[]",
          "name": "amounts",
          "type": "uint256[]"
        },
        {
          "internalType": "bytes32[]",
          "name": "commitments",
          "type": "bytes32[]"
        }
      ],
      "name": "mintToZKPEscrow",
      "outputs": [],
      "stateMutability": "nonpayable",
      "type": "function"
    },
    {
      "inputs": [],
      "name": "name",
      "outputs": [
        {
          "internalType": "string",
          "name": "",
          "type": "string"
        }
      ],
      "stateMutability": "view",
      "type": "function"
    },
    {
      "inputs": [
        {
          "internalType": "string",
          "name": "",
          "type": "string"
        }
      ],
      "name": "registeredInstitutions",
      "outputs": [
        {
          "internalType": "address",
          "name": "",
          "type": "address"
        }
      ],
      "stateMutability": "view",
      "type": "function"
    },
    {
      "inputs": [
        {
          "internalType": "uint256",
          "name": "",
          "type": "uint256"
        }
      ],
      "name": "registeredTornadoDenominations",
      "outputs": [
        {
          "internalType": "address",
          "name": "",
          "type": "address"
        }
      ],
      "stateMutability": "view",
      "type": "function"
    },
    {
      "inputs": [
        {
          "internalType": "bytes32",
          "name": "role",
          "type": "bytes32"
        },
        {
          "internalType": "address",
          "name": "account",
          "type": "address"
        }
      ],
      "name": "renounceRole",
      "outputs": [],
      "stateMutability": "nonpayable",
      "type": "function"
    },
    {
      "inputs": [
        {
          "internalType": "bytes32",
          "name": "role",
          "type": "bytes32"
        },
        {
          "internalType": "address",
          "name": "account",
          "type": "address"
        }
      ],
      "name": "revokeRole",
      "outputs": [],
      "stateMutability": "nonpayable",
      "type": "function"
    },
    {
      "inputs": [
        {
          "internalType": "bytes4",
          "name": "interfaceId",
          "type": "bytes4"
        }
      ],
      "name": "supportsInterface",
      "outputs": [
        {
          "internalType": "bool",
          "name": "",
          "type": "bool"
        }
      ],
      "stateMutability": "view",
      "type": "function"
    },
    {
      "inputs": [],
      "name": "symbol",
      "outputs": [
        {
          "internalType": "string",
          "name": "",
          "type": "string"
        }
      ],
      "stateMutability": "view",
      "type": "function"
    },
    {
      "inputs": [],
      "name": "totalSupply",
      "outputs": [
        {
          "internalType": "uint256",
          "name": "",
          "type": "uint256"
        }
      ],
      "stateMutability": "view",
      "type": "function"
    },
    {
      "inputs": [
        {
          "internalType": "address",
          "name": "recipient",
          "type": "address"
        },
        {
          "internalType": "uint256",
          "name": "amount",
          "type": "uint256"
        }
      ],
      "name": "transfer",
      "outputs": [
        {
          "internalType": "bool",
          "name": "",
          "type": "bool"
        }
      ],
      "stateMutability": "nonpayable",
      "type": "function"
    },
    {
      "inputs": [
        {
          "internalType": "address",
          "name": "sender",
          "type": "address"
        },
        {
          "internalType": "address",
          "name": "recipient",
          "type": "address"
        },
        {
          "internalType": "uint256",
          "name": "amount",
          "type": "uint256"
        }
      ],
      "name": "transferFrom",
      "outputs": [
        {
          "internalType": "bool",
          "name": "",
          "type": "bool"
        }
      ],
      "stateMutability": "nonpayable",
      "type": "function"
    }
  ],
  "bytecode": "0x60806040523480156200001157600080fd5b50604051620064793803806200647983398181016040528101906200003791906200129b565b88888160039080519060200190620000519291906200114b565b5080600490805190602001906200006a9291906200114b565b505050620000826000801b866200021560201b60201c565b620000b47fcba6866b290d8deba9d2a9583646b598fa1762a2a55947e3f57f811d3895526a856200021560201b60201c565b620000e67f990193d772e35006e4af3d68abaee0e6fcc2a81756c86cd5f6aae56a27f3c129846200021560201b60201c565b620001187f990193d772e35006e4af3d68abaee0e6fcc2a81756c86cd5f6aae56a27f3c129306200025d60201b60201c565b6200014a7f0664b3bef248fa8e085d6e94332c9ddd0e7a0a52ea025306ddfbde4200adb107836200021560201b60201c565b6200017c7f94ec5510c4cfc3d5444d7fab6396e3f86f4945b71a1b524b6d91fb562fa0b7cb826200021560201b60201c565b620001ae7fa467e0eaf94b9f69a7460accc56c1942f1f2fa135723e2a2a47f7393afb44560336200021560201b60201c565b620001e07fa467e0eaf94b9f69a7460accc56c1942f1f2fa135723e2a2a47f7393afb44560306200025d60201b60201c565b620001f23387620002a560201b60201c565b62000206873060016200040a60201b60201c565b50505050505050505062001ab4565b6200022c82826200061f60201b62001a9a1760201c565b6200025881600660008581526020019081526020016000206200063560201b62001aa81790919060201c565b505050565b6200027482826200066d60201b62001ad81760201c565b620002a081600660008581526020019081526020016000206200063560201b62001aa81790919060201c565b505050565b600073ffffffffffffffffffffffffffffffffffffffff168273ffffffffffffffffffffffffffffffffffffffff16141562000318576040517f08c379a00000000000000000000000000000000000000000000000000000000081526004016200030f9062001743565b60405180910390fd5b6200032c60008383620006b660201b60201c565b806002600082825462000340919062001810565b92505081905550806000808473ffffffffffffffffffffffffffffffffffffffff1673ffffffffffffffffffffffffffffffffffffffff168152602001908152602001600020600082825462000397919062001810565b925050819055508173ffffffffffffffffffffffffffffffffffffffff16600073ffffffffffffffffffffffffffffffffffffffff167fddf252ad1be2c89b69c2b068fc378daa952ba7f163c4a11628f55a4df523b3ef83604051620003fe919062001765565b60405180910390a35050565b6200043c7f990193d772e35006e4af3d68abaee0e6fcc2a81756c86cd5f6aae56a27f3c129336200081360201b60201c565b6200047e576040517f08c379a0000000000000000000000000000000000000000000000000000000008152600401620004759062001721565b60405180910390fd5b6001151581151514156200055557816007846040516200049f91906200163c565b908152602001604051809103902060006101000a81548173ffffffffffffffffffffffffffffffffffffffff021916908373ffffffffffffffffffffffffffffffffffffffff1602179055506200051d7f94ec5510c4cfc3d5444d7fab6396e3f86f4945b71a1b524b6d91fb562fa0b7cb836200025d60201b60201c565b6200054f7fa467e0eaf94b9f69a7460accc56c1942f1f2fa135723e2a2a47f7393afb44560836200025d60201b60201c565b6200061a565b60006007846040516200056991906200163c565b908152602001604051809103902060006101000a81548173ffffffffffffffffffffffffffffffffffffffff021916908373ffffffffffffffffffffffffffffffffffffffff160217905550620005e77f94ec5510c4cfc3d5444d7fab6396e3f86f4945b71a1b524b6d91fb562fa0b7cb836200087e60201b60201c565b620006197fa467e0eaf94b9f69a7460accc56c1942f1f2fa135723e2a2a47f7393afb44560836200087e60201b60201c565b5b505050565b620006318282620008c660201b60201c565b5050565b600062000665836000018373ffffffffffffffffffffffffffffffffffffffff1660001b620009b860201b60201c565b905092915050565b6200067e8262000a3260201b60201c565b6200069f816200069362000a5260201b60201c565b62000a5a60201b60201c565b620006b18383620008c660201b60201c565b505050565b620006e87fa467e0eaf94b9f69a7460accc56c1942f1f2fa135723e2a2a47f7393afb44560846200081360201b60201c565b80620007205750600073ffffffffffffffffffffffffffffffffffffffff168373ffffffffffffffffffffffffffffffffffffffff16145b62000762576040517f08c379a00000000000000000000000000000000000000000000000000000000081526004016200075990620016dd565b60405180910390fd5b620007947fa467e0eaf94b9f69a7460accc56c1942f1f2fa135723e2a2a47f7393afb44560836200081360201b60201c565b80620007cc5750600073ffffffffffffffffffffffffffffffffffffffff168273ffffffffffffffffffffffffffffffffffffffff16145b6200080e576040517f08c379a00000000000000000000000000000000000000000000000000000000081526004016200080590620016ff565b60405180910390fd5b505050565b60006005600084815260200190815260200160002060000160008373ffffffffffffffffffffffffffffffffffffffff1673ffffffffffffffffffffffffffffffffffffffff16815260200190815260200160002060009054906101000a900460ff16905092915050565b62000895828262000b1e60201b62001b011760201c565b620008c1816006600085815260200190815260200160002062000b6760201b62001b2a1790919060201c565b505050565b620008d882826200081360201b60201c565b620009b45760016005600084815260200190815260200160002060000160008373ffffffffffffffffffffffffffffffffffffffff1673ffffffffffffffffffffffffffffffffffffffff16815260200190815260200160002060006101000a81548160ff0219169083151502179055506200095962000a5260201b60201c565b73ffffffffffffffffffffffffffffffffffffffff168173ffffffffffffffffffffffffffffffffffffffff16837f2f8788117e7eff1d82e926ec794901d17c78024a50270940304540a733656f0d60405160405180910390a45b5050565b6000620009cc838362000b9f60201b60201c565b62000a2757826000018290806001815401808255809150506001900390600052602060002001600090919091909150558260000180549050836001016000848152602001908152602001600020819055506001905062000a2c565b600090505b92915050565b600060056000838152602001908152602001600020600101549050919050565b600033905090565b62000a6c82826200081360201b60201c565b62000b1a5762000a9f8173ffffffffffffffffffffffffffffffffffffffff16601462000bc260201b62001b5a1760201c565b62000aba8360001c602062000bc260201b62001b5a1760201c565b60405160200162000acd92919062001655565b6040516020818303038152906040526040517f08c379a000000000000000000000000000000000000000000000000000000000815260040162000b11919062001697565b60405180910390fd5b5050565b62000b2f8262000a3260201b60201c565b62000b508162000b4462000a5260201b60201c565b62000a5a60201b60201c565b62000b62838362000ed160201b60201c565b505050565b600062000b97836000018373ffffffffffffffffffffffffffffffffffffffff1660001b62000fc460201b60201c565b905092915050565b600080836001016000848152602001908152602001600020541415905092915050565b60606000600283600262000bd791906200186d565b62000be3919062001810565b67ffffffffffffffff81111562000c23577f4e487b7100000000000000000000000000000000000000000000000000000000600052604160045260246000fd5b6040519080825280601f01601f19166020018201604052801562000c565781602001600182028036833780820191505090505b5090507f30000000000000000000000000000000000000000000000000000000000000008160008151811062000cb5577f4e487b7100000000000000000000000000000000000000000000000000000000600052603260045260246000fd5b60200101907effffffffffffffffffffffffffffffffffffffffffffffffffffffffffffff1916908160001a9053507f78000000000000000000000000000000000000000000000000000000000000008160018151811062000d40577f4e487b7100000000000000000000000000000000000000000000000000000000600052603260045260246000fd5b60200101907effffffffffffffffffffffffffffffffffffffffffffffffffffffffffffff1916908160001a9053506000600184600262000d8291906200186d565b62000d8e919062001810565b90505b600181111562000e80577f3031323334353637383961626364656600000000000000000000000000000000600f86166010811062000df8577f4e487b7100000000000000000000000000000000000000000000000000000000600052603260045260246000fd5b1a60f81b82828151811062000e36577f4e487b7100000000000000000000000000000000000000000000000000000000600052603260045260246000fd5b60200101907effffffffffffffffffffffffffffffffffffffffffffffffffffffffffffff1916908160001a905350600485901c94508062000e78906200197d565b905062000d91565b506000841462000ec7576040517f08c379a000000000000000000000000000000000000000000000000000000000815260040162000ebe90620016bb565b60405180910390fd5b8091505092915050565b62000ee382826200081360201b60201c565b1562000fc05760006005600084815260200190815260200160002060000160008373ffffffffffffffffffffffffffffffffffffffff1673ffffffffffffffffffffffffffffffffffffffff16815260200190815260200160002060006101000a81548160ff02191690831515021790555062000f6562000a5260201b60201c565b73ffffffffffffffffffffffffffffffffffffffff168173ffffffffffffffffffffffffffffffffffffffff16837ff6391f5c32d9c69d2a47ea670b442974b53935d1edc7fd64eb21e047a839171b60405160405180910390a45b5050565b600080836001016000848152602001908152602001600020549050600081146200113f57600060018262000ff99190620018ce565b9050600060018660000180549050620010139190620018ce565b9050600086600001828154811062001054577f4e487b7100000000000000000000000000000000000000000000000000000000600052603260045260246000fd5b90600052602060002001549050808760000184815481106200109f577f4e487b7100000000000000000000000000000000000000000000000000000000600052603260045260246000fd5b906000526020600020018190555083876001016000838152602001908152602001600020819055508660000180548062001102577f4e487b7100000000000000000000000000000000000000000000000000000000600052603160045260246000fd5b6001900381819060005260206000200160009055905586600101600087815260200190815260200160002060009055600194505050505062001145565b60009150505b92915050565b8280546200115990620019ac565b90600052602060002090601f0160209004810192826200117d5760008555620011c9565b82601f106200119857805160ff1916838001178555620011c9565b82800160010185558215620011c9579182015b82811115620011c8578251825591602001919060010190620011ab565b5b509050620011d89190620011dc565b5090565b5b80821115620011f7576000816000905550600101620011dd565b5090565b6000620012126200120c84620017b6565b62001782565b9050828152602081018484840111156200122b57600080fd5b6200123884828562001947565b509392505050565b600081519050620012518162001a80565b92915050565b600082601f8301126200126957600080fd5b81516200127b848260208601620011fb565b91505092915050565b600081519050620012958162001a9a565b92915050565b60008060008060008060008060006101208a8c031215620012bb57600080fd5b60008a015167ffffffffffffffff811115620012d657600080fd5b620012e48c828d0162001257565b99505060208a015167ffffffffffffffff8111156200130257600080fd5b620013108c828d0162001257565b98505060408a015167ffffffffffffffff8111156200132e57600080fd5b6200133c8c828d0162001257565b97505060606200134f8c828d0162001284565b9650506080620013628c828d0162001240565b95505060a0620013758c828d0162001240565b94505060c0620013888c828d0162001240565b93505060e06200139b8c828d0162001240565b925050610100620013af8c828d0162001240565b9150509295985092959850929598565b6000620013cc82620017e9565b620013d88185620017f4565b9350620013ea81856020860162001947565b620013f58162001a6f565b840191505092915050565b60006200140d82620017e9565b62001419818562001805565b93506200142b81856020860162001947565b80840191505092915050565b600062001446602083620017f4565b91507f537472696e67733a20686578206c656e67746820696e73756666696369656e746000830152602082019050919050565b600062001488601983620017f4565b91507f53656e646572206d75737420626520617574686f7269736564000000000000006000830152602082019050919050565b6000620014ca601b83620017f4565b91507f5265636569766572206d75737420626520617574686f726973656400000000006000830152602082019050919050565b60006200150c603e83620017f4565b91507f4d757374206861766520494e535449545554494f4e5f524f4c4520726f6c652060008301527f746f20616464206f722072656d6f76656420696e737469747574696f6e7300006020830152604082019050919050565b60006200157460178362001805565b91507f416363657373436f6e74726f6c3a206163636f756e74200000000000000000006000830152601782019050919050565b6000620015b660118362001805565b91507f206973206d697373696e6720726f6c65200000000000000000000000000000006000830152601182019050919050565b6000620015f8601f83620017f4565b91507f45524332303a206d696e7420746f20746865207a65726f2061646472657373006000830152602082019050919050565b62001636816200193d565b82525050565b60006200164a828462001400565b915081905092915050565b6000620016628262001565565b915062001670828562001400565b91506200167d82620015a7565b91506200168b828462001400565b91508190509392505050565b60006020820190508181036000830152620016b38184620013bf565b905092915050565b60006020820190508181036000830152620016d68162001437565b9050919050565b60006020820190508181036000830152620016f88162001479565b9050919050565b600060208201905081810360008301526200171a81620014bb565b9050919050565b600060208201905081810360008301526200173c81620014fd565b9050919050565b600060208201905081810360008301526200175e81620015e9565b9050919050565b60006020820190506200177c60008301846200162b565b92915050565b6000604051905081810181811067ffffffffffffffff82111715620017ac57620017ab62001a40565b5b8060405250919050565b600067ffffffffffffffff821115620017d457620017d362001a40565b5b601f19601f8301169050602081019050919050565b600081519050919050565b600082825260208201905092915050565b600081905092915050565b60006200181d826200193d565b91506200182a836200193d565b9250827fffffffffffffffffffffffffffffffffffffffffffffffffffffffffffffffff03821115620018625762001861620019e2565b5b828201905092915050565b60006200187a826200193d565b915062001887836200193d565b9250817fffffffffffffffffffffffffffffffffffffffffffffffffffffffffffffffff0483118215151615620018c357620018c2620019e2565b5b828202905092915050565b6000620018db826200193d565b9150620018e8836200193d565b925082821015620018fe57620018fd620019e2565b5b828203905092915050565b600062001916826200191d565b9050919050565b600073ffffffffffffffffffffffffffffffffffffffff82169050919050565b6000819050919050565b60005b83811015620019675780820151818401526020810190506200194a565b8381111562001977576000848401525b50505050565b60006200198a826200193d565b91506000821415620019a157620019a0620019e2565b5b600182039050919050565b60006002820490506001821680620019c557607f821691505b60208210811415620019dc57620019db62001a11565b5b50919050565b7f4e487b7100000000000000000000000000000000000000000000000000000000600052601160045260246000fd5b7f4e487b7100000000000000000000000000000000000000000000000000000000600052602260045260246000fd5b7f4e487b7100000000000000000000000000000000000000000000000000000000600052604160045260246000fd5b6000601f19601f8301169050919050565b62001a8b8162001909565b811462001a9757600080fd5b50565b62001aa5816200193d565b811462001ab157600080fd5b50565b6149b58062001ac46000396000f3fe608060405234801561001057600080fd5b50600436106102065760003560e01c806343b588501161011a578063a13b514b116100ad578063b607188e1161007c578063b607188e1461063b578063ca15c87314610657578063d547741f14610687578063dd62ed3e146106a3578063f3107e6c146106d357610206565b8063a13b514b1461058d578063a217fddf146105bd578063a457c2d7146105db578063a9059cbb1461060b57610206565b80639010d07c116100e95780639010d07c146104f157806391d148541461052157806393a124151461055157806395d89b411461056f57610206565b806343b588501461046957806357749c591461048757806370a08231146104a357806381a380f7146104d357610206565b8063248a9ca31161019d578063395093511161016c57806339509351146103c95780633d1ae0e8146103f957806340c10f191461041557806342966c6814610431578063435c1f421461044d57610206565b8063248a9ca3146103435780632f2ff15d14610373578063313ce5671461038f57806336568abe146103ad57610206565b806313119161116101d957806313119161146102b957806318160ddd146102d75780631b929c21146102f557806323b872dd1461031357610206565b806301ffc9a71461020b57806305942f941461023b57806306fdde031461026b578063095ea7b314610289575b600080fd5b610225600480360381019061022091906131a4565b6106ef565b60405161023291906140b3565b60405180910390f35b61025560048036038101906102509190613275565b610769565b6040516102629190613ff9565b60405180910390f35b61027361079c565b60405161028091906140e9565b60405180910390f35b6102a3600480360381019061029e91906130c7565b61082e565b6040516102b091906140b3565b60405180910390f35b6102c161084c565b6040516102ce91906140ce565b60405180910390f35b6102df610870565b6040516102ec919061444b565b60405180910390f35b6102fd61087a565b60405161030a91906140ce565b60405180910390f35b61032d6004803603810190610328919061303c565b61089e565b60405161033a91906140b3565b60405180910390f35b61035d60048036038101906103589190613103565b61099f565b60405161036a91906140ce565b60405180910390f35b61038d6004803603810190610388919061312c565b6109bf565b005b6103976109f3565b6040516103a491906144ab565b60405180910390f35b6103c760048036038101906103c2919061312c565b6109fc565b005b6103e360048036038101906103de91906130c7565b610a30565b6040516103f091906140b3565b60405180910390f35b610413600480360381019061040e9190612fd7565b610adc565b005b61042f600480360381019061042a91906130c7565b610da2565b005b61044b60048036038101906104469190613275565b610e19565b005b6104676004803603810190610462919061308b565b610e8f565b005b610471610f63565b60405161047e91906140ce565b60405180910390f35b6104a1600480360381019061049c919061320e565b610f87565b005b6104bd60048036038101906104b89190612fd7565b61116b565b6040516104ca919061444b565b60405180910390f35b6104db6111b3565b6040516104e891906140ce565b60405180910390f35b61050b60048036038101906105069190613168565b6111d7565b6040516105189190613ff9565b60405180910390f35b61053b6004803603810190610536919061312c565b611206565b60405161054891906140b3565b60405180910390f35b610559611271565b60405161056691906140ce565b60405180910390f35b610577611295565b60405161058491906140e9565b60405180910390f35b6105a760048036038101906105a291906131cd565b611327565b6040516105b49190613ff9565b60405180910390f35b6105c5611370565b6040516105d291906140ce565b60405180910390f35b6105f560048036038101906105f091906130c7565b611377565b60405161060291906140b3565b60405180910390f35b610625600480360381019061062091906130c7565b61146b565b60405161063291906140b3565b60405180910390f35b61065560048036038101906106509190613346565b611489565b005b610671600480360381019061066c9190613103565b611675565b60405161067e919061444b565b60405180910390f35b6106a1600480360381019061069c919061312c565b611699565b005b6106bd60048036038101906106b89190613000565b6116cd565b6040516106ca919061444b565b60405180910390f35b6106ed60048036038101906106e891906132c7565b611754565b005b60007f5a05180f000000000000000000000000000000000000000000000000000000007bffffffffffffffffffffffffffffffffffffffffffffffffffffffff1916827bffffffffffffffffffffffffffffffffffffffffffffffffffffffff19161480610762575061076182611e54565b5b9050919050565b60086020528060005260406000206000915054906101000a900473ffffffffffffffffffffffffffffffffffffffff1681565b6060600380546107ab906147f3565b80601f01602080910402602001604051908101604052809291908181526020018280546107d7906147f3565b80156108245780601f106107f957610100808354040283529160200191610824565b820191906000526020600020905b81548152906001019060200180831161080757829003601f168201915b5050505050905090565b600061084261083b611ece565b8484611ed6565b6001905092915050565b7f0664b3bef248fa8e085d6e94332c9ddd0e7a0a52ea025306ddfbde4200adb10781565b6000600254905090565b7f990193d772e35006e4af3d68abaee0e6fcc2a81756c86cd5f6aae56a27f3c12981565b60006108ab8484846120a1565b6000600160008673ffffffffffffffffffffffffffffffffffffffff1673ffffffffffffffffffffffffffffffffffffffff16815260200190815260200160002060006108f6611ece565b73ffffffffffffffffffffffffffffffffffffffff1673ffffffffffffffffffffffffffffffffffffffff16815260200190815260200160002054905082811015610976576040517f08c379a000000000000000000000000000000000000000000000000000000000815260040161096d906142ab565b60405180910390fd5b61099385610982611ece565b858461098e91906146c8565b611ed6565b60019150509392505050565b600060056000838152602001908152602001600020600101549050919050565b6109c98282611ad8565b6109ee8160066000858152602001908152602001600020611aa890919063ffffffff16565b505050565b60006002905090565b610a068282612320565b610a2b8160066000858152602001908152602001600020611b2a90919063ffffffff16565b505050565b6000610ad2610a3d611ece565b848460016000610a4b611ece565b73ffffffffffffffffffffffffffffffffffffffff1673ffffffffffffffffffffffffffffffffffffffff16815260200190815260200160002060008873ffffffffffffffffffffffffffffffffffffffff1673ffffffffffffffffffffffffffffffffffffffff16815260200190815260200160002054610acd9190614618565b611ed6565b6001905092915050565b600073ffffffffffffffffffffffffffffffffffffffff168173ffffffffffffffffffffffffffffffffffffffff161415610b4c576040517f08c379a0000000000000000000000000000000000000000000000000000000008152600401610b43906143ab565b60405180910390fd5b610b767fcba6866b290d8deba9d2a9583646b598fa1762a2a55947e3f57f811d3895526a33611206565b610bb5576040517f08c379a0000000000000000000000000000000000000000000000000000000008152600401610bac9061428b565b60405180910390fd5b600081905060008173ffffffffffffffffffffffffffffffffffffffff16638bca6d166040518163ffffffff1660e01b815260040160206040518083038186803b158015610c0257600080fd5b505afa158015610c16573d6000803e3d6000fd5b505050506040513d601f19601f82011682018060405250810190610c3a919061329e565b9050600073ffffffffffffffffffffffffffffffffffffffff166008600083815260200190815260200160002060009054906101000a900473ffffffffffffffffffffffffffffffffffffffff1673ffffffffffffffffffffffffffffffffffffffff1614610cde576040517f08c379a0000000000000000000000000000000000000000000000000000000008152600401610cd5906141cb565b60405180910390fd5b60008111610d21576040517f08c379a0000000000000000000000000000000000000000000000000000000008152600401610d18906143cb565b60405180910390fd5b826008600083815260200190815260200160002060006101000a81548173ffffffffffffffffffffffffffffffffffffffff021916908373ffffffffffffffffffffffffffffffffffffffff160217905550610d9d7fa467e0eaf94b9f69a7460accc56c1942f1f2fa135723e2a2a47f7393afb44560846109bf565b505050565b610dcc7f94ec5510c4cfc3d5444d7fab6396e3f86f4945b71a1b524b6d91fb562fa0b7cb33611206565b610e0b576040517f08c379a0000000000000000000000000000000000000000000000000000000008152600401610e029061438b565b60405180910390fd5b610e1582826123a3565b5050565b610e437f94ec5510c4cfc3d5444d7fab6396e3f86f4945b71a1b524b6d91fb562fa0b7cb33611206565b610e82576040517f08c379a0000000000000000000000000000000000000000000000000000000008152600401610e799061438b565b60405180910390fd5b610e8c33826124f7565b50565b610eb97f0664b3bef248fa8e085d6e94332c9ddd0e7a0a52ea025306ddfbde4200adb10733611206565b610ef8576040517f08c379a0000000000000000000000000000000000000000000000000000000008152600401610eef9061434b565b60405180910390fd5b600115158115151415610f3457610f2f7fa467e0eaf94b9f69a7460accc56c1942f1f2fa135723e2a2a47f7393afb44560836109bf565b610f5f565b610f5e7fa467e0eaf94b9f69a7460accc56c1942f1f2fa135723e2a2a47f7393afb4456083611699565b5b5050565b7f94ec5510c4cfc3d5444d7fab6396e3f86f4945b71a1b524b6d91fb562fa0b7cb81565b610fb17f990193d772e35006e4af3d68abaee0e6fcc2a81756c86cd5f6aae56a27f3c12933611206565b610ff0576040517f08c379a0000000000000000000000000000000000000000000000000000000008152600401610fe79061424b565b60405180910390fd5b6001151581151514156110b3578160078460405161100e9190613fa8565b908152602001604051809103902060006101000a81548173ffffffffffffffffffffffffffffffffffffffff021916908373ffffffffffffffffffffffffffffffffffffffff1602179055506110847f94ec5510c4cfc3d5444d7fab6396e3f86f4945b71a1b524b6d91fb562fa0b7cb836109bf565b6110ae7fa467e0eaf94b9f69a7460accc56c1942f1f2fa135723e2a2a47f7393afb44560836109bf565b611166565b60006007846040516110c59190613fa8565b908152602001604051809103902060006101000a81548173ffffffffffffffffffffffffffffffffffffffff021916908373ffffffffffffffffffffffffffffffffffffffff16021790555061113b7f94ec5510c4cfc3d5444d7fab6396e3f86f4945b71a1b524b6d91fb562fa0b7cb83611699565b6111657fa467e0eaf94b9f69a7460accc56c1942f1f2fa135723e2a2a47f7393afb4456083611699565b5b505050565b60008060008373ffffffffffffffffffffffffffffffffffffffff1673ffffffffffffffffffffffffffffffffffffffff168152602001908152602001600020549050919050565b7fcba6866b290d8deba9d2a9583646b598fa1762a2a55947e3f57f811d3895526a81565b60006111fe82600660008681526020019081526020016000206126cb90919063ffffffff16565b905092915050565b60006005600084815260200190815260200160002060000160008373ffffffffffffffffffffffffffffffffffffffff1673ffffffffffffffffffffffffffffffffffffffff16815260200190815260200160002060009054906101000a900460ff16905092915050565b7fa467e0eaf94b9f69a7460accc56c1942f1f2fa135723e2a2a47f7393afb4456081565b6060600480546112a4906147f3565b80601f01602080910402602001604051908101604052809291908181526020018280546112d0906147f3565b801561131d5780601f106112f25761010080835404028352916020019161131d565b820191906000526020600020905b81548152906001019060200180831161130057829003601f168201915b5050505050905090565b6007818051602081018201805184825260208301602085012081835280955050505050506000915054906101000a900473ffffffffffffffffffffffffffffffffffffffff1681565b6000801b81565b60008060016000611386611ece565b73ffffffffffffffffffffffffffffffffffffffff1673ffffffffffffffffffffffffffffffffffffffff16815260200190815260200160002060008573ffffffffffffffffffffffffffffffffffffffff1673ffffffffffffffffffffffffffffffffffffffff16815260200190815260200160002054905082811015611443576040517f08c379a000000000000000000000000000000000000000000000000000000000815260040161143a906143eb565b60405180910390fd5b61146061144e611ece565b85858461145b91906146c8565b611ed6565b600191505092915050565b600061147f611478611ece565b84846120a1565b6001905092915050565b600073ffffffffffffffffffffffffffffffffffffffff166007826040516114b19190613fa8565b908152602001604051809103902060009054906101000a900473ffffffffffffffffffffffffffffffffffffffff1673ffffffffffffffffffffffffffffffffffffffff161415611537576040517f08c379a000000000000000000000000000000000000000000000000000000000815260040161152e9061420b565b60405180910390fd5b61154133856124f7565b7f2645a67c15e2e9e32010d131bd4395e6bb12d6152176ef183b279af8ef3d4b3f8383836007856040516115759190613fa8565b908152602001604051809103902060009054906101000a900473ffffffffffffffffffffffffffffffffffffffff166040516115b49493929190614059565b60405180910390a160006007826040516115ce9190613fa8565b908152602001604051809103902060009054906101000a900473ffffffffffffffffffffffffffffffffffffffff1690508073ffffffffffffffffffffffffffffffffffffffff1663f3107e6c8686866040518463ffffffff1660e01b815260040161163c93929190614466565b600060405180830381600087803b15801561165657600080fd5b505af115801561166a573d6000803e3d6000fd5b505050505050505050565b6000611692600660008481526020019081526020016000206126e5565b9050919050565b6116a38282611b01565b6116c88160066000858152602001908152602001600020611b2a90919063ffffffff16565b505050565b6000600160008473ffffffffffffffffffffffffffffffffffffffff1673ffffffffffffffffffffffffffffffffffffffff16815260200190815260200160002060008373ffffffffffffffffffffffffffffffffffffffff1673ffffffffffffffffffffffffffffffffffffffff16815260200190815260200160002054905092915050565b61177e7f94ec5510c4cfc3d5444d7fab6396e3f86f4945b71a1b524b6d91fb562fa0b7cb33611206565b6117bd576040517f08c379a00000000000000000000000000000000000000000000000000000000081526004016117b49061438b565b60405180910390fd5b8051825114611801576040517f08c379a00000000000000000000000000000000000000000000000000000000081526004016117f89061430b565b60405180910390fd5b60008060008061181130886123a3565b7fffbffc9ef2f079923fc29605c506cb9222857f65f74ea4c2727848f7ab6d88d330878760405161184493929190614014565b60405180910390a15b8551841015611a4f5785848151811061188f577f4e487b7100000000000000000000000000000000000000000000000000000000600052603260045260246000fd5b60200260200101519050600073ffffffffffffffffffffffffffffffffffffffff166008600083815260200190815260200160002060009054906101000a900473ffffffffffffffffffffffffffffffffffffffff1673ffffffffffffffffffffffffffffffffffffffff16141561193c576040517f08c379a00000000000000000000000000000000000000000000000000000000081526004016119339061426b565b60405180910390fd5b80836119489190614618565b92506008600082815260200190815260200160002060009054906101000a900473ffffffffffffffffffffffffffffffffffffffff16915061198b308383611ed6565b60008290508073ffffffffffffffffffffffffffffffffffffffff1663b214faa58787815181106119e5577f4e487b7100000000000000000000000000000000000000000000000000000000600052603260045260246000fd5b60200260200101516040518263ffffffff1660e01b8152600401611a0991906140ce565b600060405180830381600087803b158015611a2357600080fd5b505af1158015611a37573d6000803e3d6000fd5b505050508480611a4690614825565b9550505061184d565b868314611a91576040517f08c379a0000000000000000000000000000000000000000000000000000000008152600401611a88906142eb565b60405180910390fd5b50505050505050565b611aa482826126fa565b5050565b6000611ad0836000018373ffffffffffffffffffffffffffffffffffffffff1660001b6127db565b905092915050565b611ae18261099f565b611af281611aed611ece565b61284b565b611afc83836126fa565b505050565b611b0a8261099f565b611b1b81611b16611ece565b61284b565b611b2583836128e8565b505050565b6000611b52836000018373ffffffffffffffffffffffffffffffffffffffff1660001b6129ca565b905092915050565b606060006002836002611b6d919061466e565b611b779190614618565b67ffffffffffffffff811115611bb6577f4e487b7100000000000000000000000000000000000000000000000000000000600052604160045260246000fd5b6040519080825280601f01601f191660200182016040528015611be85781602001600182028036833780820191505090505b5090507f300000000000000000000000000000000000000000000000000000000000000081600081518110611c46577f4e487b7100000000000000000000000000000000000000000000000000000000600052603260045260246000fd5b60200101907effffffffffffffffffffffffffffffffffffffffffffffffffffffffffffff1916908160001a9053507f780000000000000000000000000000000000000000000000000000000000000081600181518110611cd0577f4e487b7100000000000000000000000000000000000000000000000000000000600052603260045260246000fd5b60200101907effffffffffffffffffffffffffffffffffffffffffffffffffffffffffffff1916908160001a90535060006001846002611d10919061466e565b611d1a9190614618565b90505b6001811115611e06577f3031323334353637383961626364656600000000000000000000000000000000600f861660108110611d82577f4e487b7100000000000000000000000000000000000000000000000000000000600052603260045260246000fd5b1a60f81b828281518110611dbf577f4e487b7100000000000000000000000000000000000000000000000000000000600052603260045260246000fd5b60200101907effffffffffffffffffffffffffffffffffffffffffffffffffffffffffffff1916908160001a905350600485901c945080611dff906147c9565b9050611d1d565b5060008414611e4a576040517f08c379a0000000000000000000000000000000000000000000000000000000008152600401611e419061412b565b60405180910390fd5b8091505092915050565b60007f7965db0b000000000000000000000000000000000000000000000000000000007bffffffffffffffffffffffffffffffffffffffffffffffffffffffff1916827bffffffffffffffffffffffffffffffffffffffffffffffffffffffff19161480611ec75750611ec682612b48565b5b9050919050565b600033905090565b600073ffffffffffffffffffffffffffffffffffffffff168373ffffffffffffffffffffffffffffffffffffffff161415611f46576040517f08c379a0000000000000000000000000000000000000000000000000000000008152600401611f3d9061436b565b60405180910390fd5b600073ffffffffffffffffffffffffffffffffffffffff168273ffffffffffffffffffffffffffffffffffffffff161415611fb6576040517f08c379a0000000000000000000000000000000000000000000000000000000008152600401611fad906141eb565b60405180910390fd5b80600160008573ffffffffffffffffffffffffffffffffffffffff1673ffffffffffffffffffffffffffffffffffffffff16815260200190815260200160002060008473ffffffffffffffffffffffffffffffffffffffff1673ffffffffffffffffffffffffffffffffffffffff168152602001908152602001600020819055508173ffffffffffffffffffffffffffffffffffffffff168373ffffffffffffffffffffffffffffffffffffffff167f8c5be1e5ebec7d5bd14f71427d1e84f3dd0314c0f7b2291e5b200ac8c7c3b92583604051612094919061444b565b60405180910390a3505050565b600073ffffffffffffffffffffffffffffffffffffffff168373ffffffffffffffffffffffffffffffffffffffff161415612111576040517f08c379a00000000000000000000000000000000000000000000000000000000081526004016121089061432b565b60405180910390fd5b600073ffffffffffffffffffffffffffffffffffffffff168273ffffffffffffffffffffffffffffffffffffffff161415612181576040517f08c379a00000000000000000000000000000000000000000000000000000000081526004016121789061414b565b60405180910390fd5b61218c838383612bb2565b60008060008573ffffffffffffffffffffffffffffffffffffffff1673ffffffffffffffffffffffffffffffffffffffff16815260200190815260200160002054905081811015612212576040517f08c379a00000000000000000000000000000000000000000000000000000000081526004016122099061422b565b60405180910390fd5b818161221e91906146c8565b6000808673ffffffffffffffffffffffffffffffffffffffff1673ffffffffffffffffffffffffffffffffffffffff16815260200190815260200160002081905550816000808573ffffffffffffffffffffffffffffffffffffffff1673ffffffffffffffffffffffffffffffffffffffff16815260200190815260200160002060008282546122ae9190614618565b925050819055508273ffffffffffffffffffffffffffffffffffffffff168473ffffffffffffffffffffffffffffffffffffffff167fddf252ad1be2c89b69c2b068fc378daa952ba7f163c4a11628f55a4df523b3ef84604051612312919061444b565b60405180910390a350505050565b612328611ece565b73ffffffffffffffffffffffffffffffffffffffff168173ffffffffffffffffffffffffffffffffffffffff1614612395576040517f08c379a000000000000000000000000000000000000000000000000000000000815260040161238c9061440b565b60405180910390fd5b61239f82826128e8565b5050565b600073ffffffffffffffffffffffffffffffffffffffff168273ffffffffffffffffffffffffffffffffffffffff161415612413576040517f08c379a000000000000000000000000000000000000000000000000000000000815260040161240a9061442b565b60405180910390fd5b61241f60008383612bb2565b80600260008282546124319190614618565b92505081905550806000808473ffffffffffffffffffffffffffffffffffffffff1673ffffffffffffffffffffffffffffffffffffffff16815260200190815260200160002060008282546124869190614618565b925050819055508173ffffffffffffffffffffffffffffffffffffffff16600073ffffffffffffffffffffffffffffffffffffffff167fddf252ad1be2c89b69c2b068fc378daa952ba7f163c4a11628f55a4df523b3ef836040516124eb919061444b565b60405180910390a35050565b600073ffffffffffffffffffffffffffffffffffffffff168273ffffffffffffffffffffffffffffffffffffffff161415612567576040517f08c379a000000000000000000000000000000000000000000000000000000000815260040161255e906142cb565b60405180910390fd5b61257382600083612bb2565b60008060008473ffffffffffffffffffffffffffffffffffffffff1673ffffffffffffffffffffffffffffffffffffffff168152602001908152602001600020549050818110156125f9576040517f08c379a00000000000000000000000000000000000000000000000000000000081526004016125f09061416b565b60405180910390fd5b818161260591906146c8565b6000808573ffffffffffffffffffffffffffffffffffffffff1673ffffffffffffffffffffffffffffffffffffffff16815260200190815260200160002081905550816002600082825461265991906146c8565b92505081905550600073ffffffffffffffffffffffffffffffffffffffff168373ffffffffffffffffffffffffffffffffffffffff167fddf252ad1be2c89b69c2b068fc378daa952ba7f163c4a11628f55a4df523b3ef846040516126be919061444b565b60405180910390a3505050565b60006126da8360000183612cf7565b60001c905092915050565b60006126f382600001612d91565b9050919050565b6127048282611206565b6127d75760016005600084815260200190815260200160002060000160008373ffffffffffffffffffffffffffffffffffffffff1673ffffffffffffffffffffffffffffffffffffffff16815260200190815260200160002060006101000a81548160ff02191690831515021790555061277c611ece565b73ffffffffffffffffffffffffffffffffffffffff168173ffffffffffffffffffffffffffffffffffffffff16837f2f8788117e7eff1d82e926ec794901d17c78024a50270940304540a733656f0d60405160405180910390a45b5050565b60006127e78383612da2565b612840578260000182908060018154018082558091505060019003906000526020600020016000909190919091505582600001805490508360010160008481526020019081526020016000208190555060019050612845565b600090505b92915050565b6128558282611206565b6128e45761287a8173ffffffffffffffffffffffffffffffffffffffff166014611b5a565b6128888360001c6020611b5a565b604051602001612899929190613fbf565b6040516020818303038152906040526040517f08c379a00000000000000000000000000000000000000000000000000000000081526004016128db91906140e9565b60405180910390fd5b5050565b6128f28282611206565b156129c65760006005600084815260200190815260200160002060000160008373ffffffffffffffffffffffffffffffffffffffff1673ffffffffffffffffffffffffffffffffffffffff16815260200190815260200160002060006101000a81548160ff02191690831515021790555061296b611ece565b73ffffffffffffffffffffffffffffffffffffffff168173ffffffffffffffffffffffffffffffffffffffff16837ff6391f5c32d9c69d2a47ea670b442974b53935d1edc7fd64eb21e047a839171b60405160405180910390a45b5050565b60008083600101600084815260200190815260200160002054905060008114612b3c5760006001826129fc91906146c8565b9050600060018660000180549050612a1491906146c8565b90506000866000018281548110612a54577f4e487b7100000000000000000000000000000000000000000000000000000000600052603260045260246000fd5b9060005260206000200154905080876000018481548110612a9e577f4e487b7100000000000000000000000000000000000000000000000000000000600052603260045260246000fd5b9060005260206000200181905550838760010160008381526020019081526020016000208190555086600001805480612b00577f4e487b7100000000000000000000000000000000000000000000000000000000600052603160045260246000fd5b60019003818190600052602060002001600090559055866001016000878152602001908152602001600020600090556001945050505050612b42565b60009150505b92915050565b60007f01ffc9a7000000000000000000000000000000000000000000000000000000007bffffffffffffffffffffffffffffffffffffffffffffffffffffffff1916827bffffffffffffffffffffffffffffffffffffffffffffffffffffffff1916149050919050565b612bdc7fa467e0eaf94b9f69a7460accc56c1942f1f2fa135723e2a2a47f7393afb4456084611206565b80612c135750600073ffffffffffffffffffffffffffffffffffffffff168373ffffffffffffffffffffffffffffffffffffffff16145b612c52576040517f08c379a0000000000000000000000000000000000000000000000000000000008152600401612c499061418b565b60405180910390fd5b612c7c7fa467e0eaf94b9f69a7460accc56c1942f1f2fa135723e2a2a47f7393afb4456083611206565b80612cb35750600073ffffffffffffffffffffffffffffffffffffffff168273ffffffffffffffffffffffffffffffffffffffff16145b612cf2576040517f08c379a0000000000000000000000000000000000000000000000000000000008152600401612ce9906141ab565b60405180910390fd5b505050565b600081836000018054905011612d42576040517f08c379a0000000000000000000000000000000000000000000000000000000008152600401612d399061410b565b60405180910390fd5b826000018281548110612d7e577f4e487b7100000000000000000000000000000000000000000000000000000000600052603260045260246000fd5b9060005260206000200154905092915050565b600081600001805490509050919050565b600080836001016000848152602001908152602001600020541415905092915050565b6000612dd8612dd3846144f7565b6144c6565b90508083825260208201905082856020860282011115612df757600080fd5b60005b85811015612e275781612e0d8882612f59565b845260208401935060208301925050600181019050612dfa565b5050509392505050565b6000612e44612e3f84614523565b6144c6565b90508083825260208201905082856020860282011115612e6357600080fd5b60005b85811015612e935781612e798882612fad565b845260208401935060208301925050600181019050612e66565b5050509392505050565b6000612eb0612eab8461454f565b6144c6565b905082815260208101848484011115612ec857600080fd5b612ed3848285614787565b509392505050565b600081359050612eea8161490c565b92915050565b600082601f830112612f0157600080fd5b8135612f11848260208601612dc5565b91505092915050565b600082601f830112612f2b57600080fd5b8135612f3b848260208601612e31565b91505092915050565b600081359050612f5381614923565b92915050565b600081359050612f688161493a565b92915050565b600081359050612f7d81614951565b92915050565b600082601f830112612f9457600080fd5b8135612fa4848260208601612e9d565b91505092915050565b600081359050612fbc81614968565b92915050565b600081519050612fd181614968565b92915050565b600060208284031215612fe957600080fd5b6000612ff784828501612edb565b91505092915050565b6000806040838503121561301357600080fd5b600061302185828601612edb565b925050602061303285828601612edb565b9150509250929050565b60008060006060848603121561305157600080fd5b600061305f86828701612edb565b935050602061307086828701612edb565b925050604061308186828701612fad565b9150509250925092565b6000806040838503121561309e57600080fd5b60006130ac85828601612edb565b92505060206130bd85828601612f44565b9150509250929050565b600080604083850312156130da57600080fd5b60006130e885828601612edb565b92505060206130f985828601612fad565b9150509250929050565b60006020828403121561311557600080fd5b600061312384828501612f59565b91505092915050565b6000806040838503121561313f57600080fd5b600061314d85828601612f59565b925050602061315e85828601612edb565b9150509250929050565b6000806040838503121561317b57600080fd5b600061318985828601612f59565b925050602061319a85828601612fad565b9150509250929050565b6000602082840312156131b657600080fd5b60006131c484828501612f6e565b91505092915050565b6000602082840312156131df57600080fd5b600082013567ffffffffffffffff8111156131f957600080fd5b61320584828501612f83565b91505092915050565b60008060006060848603121561322357600080fd5b600084013567ffffffffffffffff81111561323d57600080fd5b61324986828701612f83565b935050602061325a86828701612edb565b925050604061326b86828701612f44565b9150509250925092565b60006020828403121561328757600080fd5b600061329584828501612fad565b91505092915050565b6000602082840312156132b057600080fd5b60006132be84828501612fc2565b91505092915050565b6000806000606084860312156132dc57600080fd5b60006132ea86828701612fad565b935050602084013567ffffffffffffffff81111561330757600080fd5b61331386828701612f1a565b925050604084013567ffffffffffffffff81111561333057600080fd5b61333c86828701612ef0565b9150509250925092565b6000806000806080858703121561335c57600080fd5b600061336a87828801612fad565b945050602085013567ffffffffffffffff81111561338757600080fd5b61339387828801612f1a565b935050604085013567ffffffffffffffff8111156133b057600080fd5b6133bc87828801612ef0565b925050606085013567ffffffffffffffff8111156133d957600080fd5b6133e587828801612f83565b91505092959194509250565b60006133fd83836134fb565b60208301905092915050565b60006134158383613f7b565b60208301905092915050565b61342a816146fc565b82525050565b600061343b8261459f565b61344581856145da565b93506134508361457f565b8060005b8381101561348157815161346888826133f1565b9750613473836145c0565b925050600181019050613454565b5085935050505092915050565b6000613499826145aa565b6134a381856145eb565b93506134ae8361458f565b8060005b838110156134df5781516134c68882613409565b97506134d1836145cd565b9250506001810190506134b2565b5085935050505092915050565b6134f58161470e565b82525050565b6135048161471a565b82525050565b6135138161471a565b82525050565b6000613524826145b5565b61352e81856145fc565b935061353e818560208601614796565b613547816148fb565b840191505092915050565b600061355d826145b5565b613567818561460d565b9350613577818560208601614796565b80840191505092915050565b60006135906022836145fc565b91507f456e756d657261626c655365743a20696e646578206f7574206f6620626f756e60008301527f64730000000000000000000000000000000000000000000000000000000000006020830152604082019050919050565b60006135f66020836145fc565b91507f537472696e67733a20686578206c656e67746820696e73756666696369656e746000830152602082019050919050565b60006136366023836145fc565b91507f45524332303a207472616e7366657220746f20746865207a65726f206164647260008301527f65737300000000000000000000000000000000000000000000000000000000006020830152604082019050919050565b600061369c6022836145fc565b91507f45524332303a206275726e20616d6f756e7420657863656564732062616c616e60008301527f63650000000000000000000000000000000000000000000000000000000000006020830152604082019050919050565b60006137026019836145fc565b91507f53656e646572206d75737420626520617574686f7269736564000000000000006000830152602082019050919050565b6000613742601b836145fc565b91507f5265636569766572206d75737420626520617574686f726973656400000000006000830152602082019050919050565b60006137826021836145fc565b91507f44656e6f6d696e6174696f6e2068617320616c7265616479206265656e20736560008301527f74000000000000000000000000000000000000000000000000000000000000006020830152604082019050919050565b60006137e86022836145fc565b91507f45524332303a20617070726f766520746f20746865207a65726f20616464726560008301527f73730000000000000000000000000000000000000000000000000000000000006020830152604082019050919050565b600061384e6030836145fc565b91507f496e737469747574696f6e206265696e672073656e742063757272656e63792060008301527f6973206e6f7420636f6e6e6563746564000000000000000000000000000000006020830152604082019050919050565b60006138b46026836145fc565b91507f45524332303a207472616e7366657220616d6f756e742065786365656473206260008301527f616c616e636500000000000000000000000000000000000000000000000000006020830152604082019050919050565b600061391a603e836145fc565b91507f4d757374206861766520494e535449545554494f4e5f524f4c4520726f6c652060008301527f746f20616464206f722072656d6f76656420696e737469747574696f6e7300006020830152604082019050919050565b6000613980602e836145fc565b91507f44656e6f6d696e6174696f6e20666f7220746f726e61646f206361736820686160008301527f73204e4f54206265656e207365740000000000000000000000000000000000006020830152604082019050919050565b60006139e66035836145fc565b91507f4d757374206861766520544f524e41444f5f524f4c4520726f6c6520746f206360008301527f6f6e6e6563742061206e657720636f6e747261637400000000000000000000006020830152604082019050919050565b6000613a4c6028836145fc565b91507f45524332303a207472616e7366657220616d6f756e742065786365656473206160008301527f6c6c6f77616e63650000000000000000000000000000000000000000000000006020830152604082019050919050565b6000613ab26021836145fc565b91507f45524332303a206275726e2066726f6d20746865207a65726f2061646472657360008301527f73000000000000000000000000000000000000000000000000000000000000006020830152604082019050919050565b6000613b186026836145fc565b91507f52756e6e696e6720746f74616c206e6f7420657175616c20746f20746f74616c60008301527f416d6f756e7400000000000000000000000000000000000000000000000000006020830152604082019050919050565b6000613b7e603a836145fc565b91507f54686572652073686f756c6420626520616e20657175616c206e756d6265722060008301527f6f6620616d6f756e747320616e6420636f6d6d69746d656e74730000000000006020830152604082019050919050565b6000613be46025836145fc565b91507f45524332303a207472616e736665722066726f6d20746865207a65726f20616460008301527f64726573730000000000000000000000000000000000000000000000000000006020830152604082019050919050565b6000613c4a603f836145fc565b91507f4d75737420686176652074686520555345525f524f4c4520726f6c6520746f2060008301527f6368616e67652074686520617574686f72697365642075736572206c697374006020830152604082019050919050565b6000613cb06024836145fc565b91507f45524332303a20617070726f76652066726f6d20746865207a65726f2061646460008301527f72657373000000000000000000000000000000000000000000000000000000006020830152604082019050919050565b6000613d166025836145fc565b91507f4d757374206861766520737570706c7920636f6e74726f6c20726f6c6520746f60008301527f206d696e740000000000000000000000000000000000000000000000000000006020830152604082019050919050565b6000613d7c6018836145fc565b91507f436f6e74726163742061646472657373206973206e756c6c00000000000000006000830152602082019050919050565b6000613dbc60178361460d565b91507f416363657373436f6e74726f6c3a206163636f756e74200000000000000000006000830152601782019050919050565b6000613dfc6018836145fc565b91507f44656e6f6d696e6174696f6e2063616e6e6f74206265203000000000000000006000830152602082019050919050565b6000613e3c6025836145fc565b91507f45524332303a2064656372656173656420616c6c6f77616e63652062656c6f7760008301527f207a65726f0000000000000000000000000000000000000000000000000000006020830152604082019050919050565b6000613ea260118361460d565b91507f206973206d697373696e6720726f6c65200000000000000000000000000000006000830152601182019050919050565b6000613ee2602f836145fc565b91507f416363657373436f6e74726f6c3a2063616e206f6e6c792072656e6f756e636560008301527f20726f6c657320666f722073656c6600000000000000000000000000000000006020830152604082019050919050565b6000613f48601f836145fc565b91507f45524332303a206d696e7420746f20746865207a65726f2061646472657373006000830152602082019050919050565b613f8481614770565b82525050565b613f9381614770565b82525050565b613fa28161477a565b82525050565b6000613fb48284613552565b915081905092915050565b6000613fca82613daf565b9150613fd68285613552565b9150613fe182613e95565b9150613fed8284613552565b91508190509392505050565b600060208201905061400e6000830184613421565b92915050565b60006060820190506140296000830186613421565b818103602083015261403b818561348e565b9050818103604083015261404f8184613430565b9050949350505050565b60006080820190508181036000830152614073818761348e565b905081810360208301526140878186613430565b9050818103604083015261409b8185613519565b90506140aa6060830184613421565b95945050505050565b60006020820190506140c860008301846134ec565b92915050565b60006020820190506140e3600083018461350a565b92915050565b600060208201905081810360008301526141038184613519565b905092915050565b6000602082019050818103600083015261412481613583565b9050919050565b60006020820190508181036000830152614144816135e9565b9050919050565b6000602082019050818103600083015261416481613629565b9050919050565b600060208201905081810360008301526141848161368f565b9050919050565b600060208201905081810360008301526141a4816136f5565b9050919050565b600060208201905081810360008301526141c481613735565b9050919050565b600060208201905081810360008301526141e481613775565b9050919050565b60006020820190508181036000830152614204816137db565b9050919050565b6000602082019050818103600083015261422481613841565b9050919050565b60006020820190508181036000830152614244816138a7565b9050919050565b600060208201905081810360008301526142648161390d565b9050919050565b6000602082019050818103600083015261428481613973565b9050919050565b600060208201905081810360008301526142a4816139d9565b9050919050565b600060208201905081810360008301526142c481613a3f565b9050919050565b600060208201905081810360008301526142e481613aa5565b9050919050565b6000602082019050818103600083015261430481613b0b565b9050919050565b6000602082019050818103600083015261432481613b71565b9050919050565b6000602082019050818103600083015261434481613bd7565b9050919050565b6000602082019050818103600083015261436481613c3d565b9050919050565b6000602082019050818103600083015261438481613ca3565b9050919050565b600060208201905081810360008301526143a481613d09565b9050919050565b600060208201905081810360008301526143c481613d6f565b9050919050565b600060208201905081810360008301526143e481613def565b9050919050565b6000602082019050818103600083015261440481613e2f565b9050919050565b6000602082019050818103600083015261442481613ed5565b9050919050565b6000602082019050818103600083015261444481613f3b565b9050919050565b60006020820190506144606000830184613f8a565b92915050565b600060608201905061447b6000830186613f8a565b818103602083015261448d818561348e565b905081810360408301526144a18184613430565b9050949350505050565b60006020820190506144c06000830184613f99565b92915050565b6000604051905081810181811067ffffffffffffffff821117156144ed576144ec6148cc565b5b8060405250919050565b600067ffffffffffffffff821115614512576145116148cc565b5b602082029050602081019050919050565b600067ffffffffffffffff82111561453e5761453d6148cc565b5b602082029050602081019050919050565b600067ffffffffffffffff82111561456a576145696148cc565b5b601f19601f8301169050602081019050919050565b6000819050602082019050919050565b6000819050602082019050919050565b600081519050919050565b600081519050919050565b600081519050919050565b6000602082019050919050565b6000602082019050919050565b600082825260208201905092915050565b600082825260208201905092915050565b600082825260208201905092915050565b600081905092915050565b600061462382614770565b915061462e83614770565b9250827fffffffffffffffffffffffffffffffffffffffffffffffffffffffffffffffff038211156146635761466261486e565b5b828201905092915050565b600061467982614770565b915061468483614770565b9250817fffffffffffffffffffffffffffffffffffffffffffffffffffffffffffffffff04831182151516156146bd576146bc61486e565b5b828202905092915050565b60006146d382614770565b91506146de83614770565b9250828210156146f1576146f061486e565b5b828203905092915050565b600061470782614750565b9050919050565b60008115159050919050565b6000819050919050565b60007fffffffff0000000000000000000000000000000000000000000000000000000082169050919050565b600073ffffffffffffffffffffffffffffffffffffffff82169050919050565b6000819050919050565b600060ff82169050919050565b82818337600083830152505050565b60005b838110156147b4578082015181840152602081019050614799565b838111156147c3576000848401525b50505050565b60006147d482614770565b915060008214156147e8576147e761486e565b5b600182039050919050565b6000600282049050600182168061480b57607f821691505b6020821081141561481f5761481e61489d565b5b50919050565b600061483082614770565b91507fffffffffffffffffffffffffffffffffffffffffffffffffffffffffffffffff8214156148635761486261486e565b5b600182019050919050565b7f4e487b7100000000000000000000000000000000000000000000000000000000600052601160045260246000fd5b7f4e487b7100000000000000000000000000000000000000000000000000000000600052602260045260246000fd5b7f4e487b7100000000000000000000000000000000000000000000000000000000600052604160045260246000fd5b6000601f19601f8301169050919050565b614915816146fc565b811461492057600080fd5b50565b61492c8161470e565b811461493757600080fd5b50565b6149438161471a565b811461494e57600080fd5b50565b61495a81614724565b811461496557600080fd5b50565b61497181614770565b811461497c57600080fd5b5056fea2646970667358221220a4ed222102fdc38f388ab966d4560f317da3a4ee25a852090bc031ffea8622cf64736f6c63430008000033",
  "linkReferences": {},
  "deployedLinkReferences": {}
}