{
  "_format": "hh-sol-artifact-1",
  "contractName": "Verifier",
  "sourceName": "contracts/external/Verifier.sol",
  "abi": [
    {
      "constant": true,
      "inputs": [
        {
          "internalType": "bytes",
          "name": "proof",
          "type": "bytes"
        },
        {
          "internalType": "uint256[6]",
          "name": "input",
          "type": "uint256[6]"
        }
      ],
      "name": "verifyProof",
      "outputs": [
        {
          "internalType": "bool",
          "name": "",
          "type": "bool"
        }
      ],
      "payable": false,
      "stateMutability": "view",
      "type": "function"
    }
  ],
  "bytecode": "0x608060405234801561001057600080fd5b50611285806100206000396000f3fe608060405234801561001057600080fd5b506004361061002b5760003560e01c8063695ef6f914610030575b600080fd5b61012a600480360360e081101561004657600080fd5b810190808035906020019064010000000081111561006357600080fd5b82018360208201111561007557600080fd5b8035906020019184600183028401116401000000008311171561009757600080fd5b91908080601f016020809104026020016040519081016040528093929190818152602001838380828437600081840152601f19601f8201169050808301925050505050505091929192908060c001906006806020026040519081016040528092919082600660200280828437600081840152601f19601f8201169050808301925050505050509192919290505050610144565b604051808215151515815260200191505060405180910390f35b600061014e611022565b8380602001905161010081101561016457600080fd5b8101908091905050905060008090505b60088160ff161015610218577f30644e72e131a029b85045b68181585d97816a916871ca8d3c208c16d87cfd47828260ff16600881106101b057fe5b60200201511061020b576040517f08c379a000000000000000000000000000000000000000000000000000000000815260040180806020018281038252602281526020018061122f6022913960400191505060405180910390fd5b8080600101915050610174565b50610221611045565b60405180604001604052808360006008811061023957fe5b602002015181526020018360016008811061025057fe5b60200201518152508160000181905250604051806040016040528060405180604001604052808560026008811061028357fe5b602002015181526020018560036008811061029a57fe5b602002015181525081526020016040518060400160405280856004600881106102bf57fe5b60200201518152602001856005600881106102d657fe5b6020020151815250815250816020018190525060405180604001604052808360066008811061030157fe5b602002015181526020018360076008811061031857fe5b60200201518152508160400181905250610330611078565b6103386104ba565b90506103426110c5565b6040518060400160405280600081526020016000815250905061037a81836080015160006007811061037057fe5b6020020151610a71565b905060008090505b6006811015610479577f30644e72e131a029b85045b68181585d2833e84879b9709143e1f593f00000018782600681106103b857fe5b602002015110610430576040517f08c379a000000000000000000000000000000000000000000000000000000000815260040180806020018281038252601f8152602001807f76657269666965722d6774652d736e61726b2d7363616c61722d6669656c640081525060200191505060405180910390fd5b61046a826104658560800151600185016007811061044a57fe5b60200201518a856006811061045b57fe5b6020020151610b8b565b610a71565b91508080600101915050610382565b506104ae61048a8460000151610c86565b84602001518460000151856020015185876040015189604001518960600151610d39565b94505050505092915050565b6104c2611078565b60405180604001604052807f2dbfc3ec62a3eee5a3b4b464bcf1f8527bbca12adea0f1f12033cd4f61b0e09181526020017f19e55bd0b72c126da18665039556776642ff82e2f347f24fcea2475f4db087df8152508160000181905250604051806040016040528060405180604001604052807f1ae724ab134e5a7c6bd8a116fa5505b259522c0f164a5e8126e3ec7d34465f6e81526020017e9f1bcdc853f8e3531756bb625b0d1dc014f4ab57c3f79f4f4e2e7ef7e0ead6815250815260200160405180604001604052807f23a8ca5760457e726365b92fd0ceb486665797cd68c35dcffd8e4ae8066691e981526020017f13ec7182c9fd68331a10f8be0fe885d730de5c7f89aa7d0b7bafaa009bbc9e3e8152508152508160200181905250604051806040016040528060405180604001604052807f198e9393920d483a7260bfb731fb5d25f1aa493335a9e71297e485b7aef312c281526020017f1800deef121f1e76426a00665e5c4479674322d4f75edadd46debd5cd992f6ed815250815260200160405180604001604052807f090689d0585ff075ec9e99ad690c3395bc4b313370b38ef355acdadcd122975b81526020017f12c85ea5db8c6deb4aab71808dcb408fe3d1e7690c43d37b4ce6cc0166fa7daa8152508152508160400181905250604051806040016040528060405180604001604052807f2f0c63d0c53b3dfbca27b6b43ae7fbf55a38d78a21470996485b03128accc20881526020017e556502356e37ed150db2e36531b0f275fd6835c0fc1945922e270b48c48a86815250815260200160405180604001604052807f02644c27b5dbd793592a70b735e22c798a5e309fa17a992a7dc2a050e01b298f81526020017f194776b6a53439d7336f389d2a8f6651e40885f5ca2538b0dc9cb534fb23f7fa815250815250816060018190525060405180604001604052807f23df1bc9165e9c1c9b2bc036d8ebdd10e7aeae7e5e8019fde68aec7c818bb23e81526020017f0b6c92080d37c5fb2ddf30892a33665e5478432ef3f71ac8768ecbbe62c7789281525081608001516000600781106107d257fe5b602002018190525060405180604001604052807f1c7b2adf45e046caea000956b2ecb2d8617e710d2a7bb201a95ea276f92307b481526020017f2b15f07536f45948cf4abe6596637d902ffabb18c8c2f5c151544c294ce4a672815250816080015160016007811061084057fe5b602002018190525060405180604001604052807f1cecfe92882a8c835a47bf01bfa655cf628cbba7f81cf4042179fd13edcd6a3981526020017f0154bfbb2cb786ca247d4b69183d1751f267bbc7656be8d0f0e7a5a47e2c110181525081608001516002600781106108ae57fe5b602002018190525060405180604001604052807f1584616a7423efcc72f69ea84fa0b2bc01433677297f4e8351bebfc15bcd0cda81526020017f0623755b1488526daa9fecf0e11b110dd6df12c461579d792e1db65af523c8be815250816080015160036007811061091c57fe5b602002018190525060405180604001604052807f12fbb5bfca9d61357ba2d641604cf4852e21ef54faa180fe539c18994dc1da5a81526020017f2f09dd9972a1af5f7bcfccf3d7ab600c9d898ea6d6933150ba0ae228ece17e5f815250816080015160046007811061098a57fe5b602002018190525060405180604001604052807f0adb513796fdf2103022c64151ce05f7c7a6d9200e8d819fa59e654fc4bfe83c81526020017f2d64f72ef4eddf9ca032058ed2bf691758387e913a77cf99d6a3cfb37c8ba7ee81525081608001516005600781106109f857fe5b602002018190525060405180604001604052807f21e7c9bffda74bfd2c4393b6803d775545de6fa89145f4a23476241d9881b66181526020017f0bbe41e52237ac13eb7b01f3cb999b7394d08734e71b1c3ada62713e17eb560c8152508160800151600660078110610a6657fe5b602002018190525090565b610a796110c5565b610a816110df565b836000015181600060048110610a9357fe5b602002018181525050836020015181600160048110610aae57fe5b602002018181525050826000015181600260048110610ac957fe5b602002018181525050826020015181600360048110610ae457fe5b602002018181525050600060608360c08460066107d05a03fa90508060008114610b0d57610b0f565bfe5b5080610b83576040517f08c379a00000000000000000000000000000000000000000000000000000000081526004018080602001828103825260128152602001807f70616972696e672d6164642d6661696c6564000000000000000000000000000081525060200191505060405180910390fd5b505092915050565b610b936110c5565b610b9b611101565b836000015181600060038110610bad57fe5b602002018181525050836020015181600160038110610bc857fe5b6020020181815250508281600260038110610bdf57fe5b602002018181525050600060608360808460076107d05a03fa90508060008114610c0857610c0a565bfe5b5080610c7e576040517f08c379a00000000000000000000000000000000000000000000000000000000081526004018080602001828103825260128152602001807f70616972696e672d6d756c2d6661696c6564000000000000000000000000000081525060200191505060405180910390fd5b505092915050565b610c8e6110c5565b60008260000151148015610ca6575060008260200151145b15610cc95760405180604001604052806000815260200160008152509050610d34565b6040518060400160405280836000015181526020017f30644e72e131a029b85045b68181585d97816a916871ca8d3c208c16d87cfd47846020015181610d0b57fe5b067f30644e72e131a029b85045b68181585d97816a916871ca8d3c208c16d87cfd470381525090505b919050565b6000610d43611123565b60405180608001604052808b8152602001898152602001878152602001858152509050610d6e611150565b60405180608001604052808b8152602001898152602001878152602001858152509050600060189050606081604051908082528060200260200182016040528015610dc85781602001602082028038833980820191505090505b50905060008090505b6004811015610f54576000600682029050858260048110610dee57fe5b602002015160000151836000830181518110610e0657fe5b602002602001018181525050858260048110610e1e57fe5b602002015160200151836001830181518110610e3657fe5b602002602001018181525050848260048110610e4e57fe5b602002015160000151600060028110610e6357fe5b6020020151836002830181518110610e7757fe5b602002602001018181525050848260048110610e8f57fe5b602002015160000151600160028110610ea457fe5b6020020151836003830181518110610eb857fe5b602002602001018181525050848260048110610ed057fe5b602002015160200151600060028110610ee557fe5b6020020151836004830181518110610ef957fe5b602002602001018181525050848260048110610f1157fe5b602002015160200151600160028110610f2657fe5b6020020151836005830181518110610f3a57fe5b602002602001018181525050508080600101915050610dd1565b50610f5d61117d565b6000602082602086026020860160086107d05a03fa90508060008114610f8257610f84565bfe5b5080610ff8576040517f08c379a00000000000000000000000000000000000000000000000000000000081526004018080602001828103825260158152602001807f70616972696e672d6f70636f64652d6661696c6564000000000000000000000081525060200191505060405180910390fd5b60008260006001811061100757fe5b60200201511415965050505050505098975050505050505050565b604051806101000160405280600890602082028038833980820191505090505090565b604051806060016040528061105861119f565b81526020016110656111b9565b815260200161107261119f565b81525090565b6040518060a0016040528061108b61119f565b81526020016110986111b9565b81526020016110a56111b9565b81526020016110b26111b9565b81526020016110bf6111df565b81525090565b604051806040016040528060008152602001600081525090565b6040518060800160405280600490602082028038833980820191505090505090565b6040518060600160405280600390602082028038833980820191505090505090565b60405180608001604052806004905b61113a61119f565b8152602001906001900390816111325790505090565b60405180608001604052806004905b6111676111b9565b81526020019060019003908161115f5790505090565b6040518060200160405280600190602082028038833980820191505090505090565b604051806040016040528060008152602001600081525090565b60405180604001604052806111cc61120c565b81526020016111d961120c565b81525090565b6040518060e001604052806007905b6111f661119f565b8152602001906001900390816111ee5790505090565b604051806040016040528060029060208202803883398082019150509050509056fe76657269666965722d70726f6f662d656c656d656e742d6774652d7072696d652d71a265627a7a72315820e1bc1cff1f8b83517549786831b7779221b362e0563f3cf76b3107f041cc86f664736f6c63430005110032",
  "linkReferences": {},
  "deployedLinkReferences": {}
}